:020000040000FA
:03000000080001F4
:030001000807FBF2
:03000200080FEAFA
:030003000817CD0E
:03000400081FA32F
:0300050008276E5B
:03000600082F2D93
:030007000836E1D7
:03000800083E8827
:030009000846277F
:03000A00084DB9E5
:03000B0008553F56
:03000C00085CBBD2
:03000D0008642C58
:03000E00086B93E9
:03000F000872EF85
:03001000087A3F2C
:03001100088184DF
:030012000888C09B
:03001300088FF063
:0300140008971931
:03001500089E340E
:0300160008A548F2
:0300170008AC4FE3
:0300180008B34CDE
:0300190008BA40E2
:03001A0008C12AF0
:03001B0008C80A08
:03001C0008CEE328
:03001D0008D5AD56
:03001E0008DC718A
:03001F0008E32AC9
:0300200008E9DC10
:0300210008F08262
:0300220008F71FBD
:0300230008FDB322
:0300240009043E8E
:03002500090AC302
:0300260009113B82
:030027000917AA0C
:03002800091E109E
:0300290009246C3B
:03002A00092AC1DF
:03002B0009310F89
:03002C000937533E
:03002D00093D8DFD
:03002E000943C0C3
:03002F000949E795
:030030000950096B
:030031000956234A
:03003200095C3432
:0300330009623B24
:0300340009683C1C
:03003500096E351C
:0300360009742624
:03003700097A0F34
:03003800097FEF4E
:030039000985C472
:03003A00098B959A
:03003B0009915CCC
:03003C0009971C05
:03003D00099CD546
:03003E0009A28A8A
:03003F0009A832DB
:0300400009ADD532
:0300410009B36E92
:0300420009B904F5
:0300430009BE8C67
:0300440009C412DA
:0300450009C98F57
:0300460009CF03DC
:0300470009D47267
:0300480009D9DBF8
:0300490009DF3D8F
:03004A0009E49630
:03004B0009E9EAD6
:03004C0009EF3485
:03004D0009F4793A
:03004E0009F9B5F8
:03004F0009FEEDBA
:030050000A041F80
:030051000A094653
:030052000A0E682B
:030053000A138508
:030054000A189BEC
:030055000A1DADD4
:030056000A22B3C8
:030057000A27B4C1
:030058000A2CB3BC
:030059000A31A7C2
:03005A000A3698CB
:03005B000A3B7FDE
:03005C000A4062F5
:03005D000A453D14
:03005E000A4A1437
:03005F000A4EE561
:030060000A53AF91
:030061000A5870CA
:030062000A5D3004
:030063000A61E946
:030064000A669C8D
:030065000A6B46DD
:030066000A6FEC32
:030067000A748E8A
:030068000A792AE8
:030069000A7DBE4F
:03006A000A824BBC
:03006B000A86D929
:03006C000A8B5CA0
:03006D000A8FD81F
:03006E000A94529F
:03006F000A98C626
:030070000A9D34B2
:030071000AA19B46
:030072000AA5FFDD
:030073000AAA5C7A
:030074000AAEB51C
:030075000AB308C3
:030076000AB7576F
:030077000ABB9E23
:030078000ABFE2DA
:030079000AC42294
:03007A000AC85A57
:03007B000ACC8E1E
:03007C000AD0BFE8
:03007D000AD4E7BB
:03007E000AD90E8E
:03007F000ADD2E69
:030080000AE1474B
:030081000AE55E2F
:030082000AE96F19
:030083000AED7D06
:030084000AF183FB
:030085000AF585F4
:030086000AF983F1
:030087000AFD7BF4
:030088000B0174F5
:030089000B056301
:03008A000B094D12
:03008B000B0D3426
:03008C000B11163F
:03008D000B14F55C
:03008E000B18CD7F
:03008F000B1CA1A6
:030090000B2070D2
:030091000B243D00
:030092000B280434
:030093000B2BC470
:030094000B2F82AD
:030095000B3340EA
:030096000B36F531
:030097000B3AA67B
:030098000B3E51CB
:030099000B41FB1D
:03009A000B459E75
:03009B000B4942CC
:03009C000B4CDE2C
:03009D000B50768F
:03009E000B540AF6
:03009F000B579A62
:0300A0000B5B24D3
:0300A1000B5EAB48
:0300A2000B6231BD
:0300A3000B65B139
:0300A4000B692CB9
:0300A5000B6CA33E
:0300A6000B7016C6
:0300A7000B738850
:0300A8000B76F3E1
:0300A9000B7A5B74
:0300AA000B7DC00B
:0300AB000B811FA7
:0300AC000B847F43
:0300AD000B87D5E9
:0300AE000B8B2A8F
:0300AF000B8E7C39
:0300B0000B91C9E8
:0300B1000B951498
:0300B2000B985C4C
:0300B3000B9BA004
:0300B4000B9EE0C0
:0300B5000BA21A81
:0300B6000BA55146
:0300B7000BA8850E
:0300B8000BABB6D9
:0300B9000BAEE4A7
:0300BA000BB20E78
:0300BB000BB5364C
:0300BC000BB85826
:0300BD000BBB7703
:0300BE000BBE95E1
:0300BF000BC1AEC4
:0300C0000BC4C4AA
:0300C1000BC7D595
:0300C2000BCAE383
:0300C3000BCDF072
:0300C4000BD0F569
:0300C5000BD3FB5F
:0300C6000BD6FD59
:0300C7000BD9FD55
:0300C8000BDCF757
:0300C9000BDFED5D
:0300CA000BE2E75F
:0300CB000BE5D46E
:0300CC000BE8C27C
:0300CD000BEBAE8C
:0300CE000BEE989E
:0300CF000BF17CB6
:0300D0000BF460CE
:0300D1000BF73DED
:0300D2000BFA1B0B
:0300D3000BFCF330
:0300D4000BFFC857
:0300D5000C029D7D
:0300D6000C056BAB
:0300D7000C0837DB
:0300D8000C0B030B
:0300D9000C0DCA41
:0300DA000C108D7A
:0300DB000C134FB4
:0300DC000C160CF3
:0300DD000C18C636
:0300DE000C1B7E7A
:0300DF000C1E38BC
:0300E0000C20E70A
:0300E1000C239954
:0300E2000C2647A2
:0300E3000C28F2F4
:0300E4000C2B9A48
:0300E5000C2E3DA1
:0300E6000C30E0FB
:0300E7000C337F58
:0300E8000C361CB7
:0300E9000C38B51B
:0300EA000C3B4D7F
:0300EB000C3DDFEA
:0300EC000C40764F
:0300ED000C4304BD
:0300EE000C45912D
:0300EF000C481C9E
:0300F0000C4AA116
:0300F1000C4D268D
:0300F2000C4FAA06
:0300F3000C522983
:0300F4000C54A900
:0300F5000C572283
:0300F6000C599909
:0300F7000C5C118D
:0300F8000C5E8417
:0300F9000C60F3A5
:0300FA000C636232
:0300FB000C65D0C1
:0300FC000C683954
:0300FD000C6A9FEB
:0300FE000C6D0680
:0300FF000C6F681B
:030100000C71C6B9
:030101000C742556
:030102000C7682F6
:030103000C78DA9B
:030104000C7B323F
:030105000C7D86E8
:030106000C7FD794
:030107000C822740
:030108000C8475EF
:030109000C86BDA4
:03010A000C890558
:03010B000C8B4C0E
:03010C000C8D95C2
:03010D000C8FD67E
:03010E000C92163A
:03010F000C9452FB
:030110000C968CBE
:030111000C98C97E
:030112000C9B0043
:030113000C9D3010
:030114000C9F65D8
:030115000CA197A3
:030116000CA3C473
:030117000CA5F143
:030118000CA81C14
:030119000CAA43EA
:03011A000CAC69C1
:03011B000CAE8D9A
:03011C000CB0AF75
:03011D000CB2D051
:03011E000CB4EE30
:03011F000CB70A10
:030120000CB923F4
:030121000CBB3ADA
:030122000CBD52BF
:030123000CBF64AA
:030124000CC17893
:030125000CC3897F
:030126000CC5976E
:030127000CC79F63
:030128000CC9AA55
:030129000CCBB448
:03012A000CCDBB3E
:03012B000CCFBE38
:03012C000CD1C033
:03012D000CD3C22E
:03012E000CD5BF2E
:03012F000CD7BB2F
:030130000CD9B730
:030131000CDBB232
:030132000CDDA53C
:030133000CDF9C42
:030134000CE18F4C
:030135000CE38355
:030136000CE57362
:030137000CE76171
:030138000CE94D82
:030139000CEB3597
:03013A000CED1DAC
:03013B000CEF04C2
:03013C000CF0EBD9
:03013D000CF2CDF4
:03013E000CF4AD11
:03013F000CF68E2D
:030140000CF86D4B
:030141000CFA4B6A
:030142000CFC258D
:030143000CFDFEB2
:030144000CFFD6D7
:030145000D01ACFD
:030146000D037D29
:030147000D055053
:030148000D07217F
:030149000D08F1AD
:03014A000D0ABDDE
:03014B000D0C890F
:03014C000D0E5342
:03014D000D101B77
:03014E000D11E1AF
:03014F000D13A5E8
:030150000D156822
:030151000D172F58
:030152000D18EF96
:030153000D1AACD6
:030154000D1C6817
:030155000D1E2359
:030156000D1FDE9C
:030157000D2198DF
:030158000D235024
:030159000D25066B
:03015A000D26B9B6
:03015B000D286903
:03015C000D2A1950
:03015D000D2BCA9D
:03015E000D2D7BE9
:03015F000D2F263B
:030160000D30CF90
:030161000D3278E4
:030162000D342138
:030163000D35C790
:030164000D376DE7
:030165000D391041
:030166000D3AB19E
:030167000D3C52FA
:030168000D3DF258
:030169000D3F92B5
:03016A000D412D17
:03016B000D42C67C
:03016C000D4464DB
:03016D000D45FB42
:03016E000D4792A8
:03016F000D492512
:030170000D4ABB7A
:030171000D4C4EE4
:030172000D4DDD53
:030173000D4F6EBF
:030174000D50FE2D
:030175000D52899F
:030176000D54170E
:030177000D55A281
:030178000D572AF6
:030179000D58B16D
:03017A000D5A3AE1
:03017B000D5BBE5B
:03017C000D5D42D4
:03017D000D5EC351
:03017E000D6047CA
:03017F000D61C748
:030180000D6344C8
:030181000D64C04A
:030182000D663CCB
:030183000D67B84D
:030184000D6933CF
:030185000D6AAB55
:030186000D6C24D9
:030187000D6D9863
:030188000D6F0BED
:030189000D708076
:03018A000D71F301
:03018B000D73648D
:03018C000D74D31C
:03018D000D7640AC
:03018E000D77AF3B
:03018F000D791CCB
:030190000D7A865F
:030191000D7BF0F3
:030192000D7D5A86
:030193000D7EBE20
:030194000D8025B6
:030195000D818C4D
:030196000D82EEE9
:030197000D845282
:030198000D85B220
:030199000D8712BD
:03019A000D887459
:03019B000D89D3F8
:03019C000D8B3098
:03019D000D8C8C3A
:03019E000D8DE4E0
:03019F000D8F3D84
:0301A0000D909629
:0301A1000D91F0CD
:0301A2000D934575
:0301A3000D949B1D
:0301A4000D95EFC7
:0301A5000D974073
:0301A6000D98921F
:0301A7000D99E4CB
:0301A8000D9B327A
:0301A9000D9C802A
:0301AA000D9DCDDB
:0301AB000D9F1A8B
:0301AC000DA0663D
:0301AD000DA1B0F1
:0301AE000DA2FEA1
:0301AF000DA44458
:0301B0000DA58A10
:0301B1000DA6D1C7
:0301B2000DA8167F
:0301B3000DA95A39
:0301B4000DAA9EF3
:0301B5000DABDFB0
:0301B6000DAD1F6D
:0301B7000DAE602A
:0301B8000DAF9FE9
:0301B9000DB0DEA8
:0301BA000DB21B68
:0301BB000DB3552C
:0301BC000DB491EE
:0301BD000DB5CEAF
:0301BE000DB70575
:0301BF000DB83D3B
:0301C0000DB97303
:0301C1000DBAABC9
:0301C2000DBBE092
:0301C3000DBD145B
:0301C4000DBE4A23
:0301C5000DBF7BF0
:0301C6000DC0ADBC
:0301C7000DC1DB8C
:0301C8000DC30C58
:0301C9000DC43B27
:0301CA000DC568F8
:0301CB000DC697C7
:0301CC000DC7C399
:0301CD000DC8EE6C
:0301CE000DCA1641
:0301CF000DCB3F16
:0301D0000DCC67EC
:0301D1000DCD8FC2
:0301D2000DCEB699
:0301D3000DCFDA73
:0301D4000DD0FE4D
:0301D5000DD22226
:0301D6000DD34600
:0301D7000DD468DC
:0301D8000DD589B9
:0301D9000DD6AA96
:0301DA000DD7C876
:0301DB000DD8E458
:0301DC000DDA0435
:0301DD000DDB1F18
:0301DE000DDC39FC
:0301DF000DDD55DE
:0301E0000DDE70C1
:0301E1000DDF89A6
:0301E2000DE0A08D
:0301E3000DE1BA71
:0301E4000DE2CF5A
:0301E5000DE3E542
:0301E6000DE4FB2A
:0301E7000DE60F13
:0301E8000DE723FD
:0301E9000DE833EB
:0301EA000DE946D6
:0301EB000DEA55C5
:0301EC000DEB65B3
:0301ED000DEC74A2
:0301EE000DED858F
:0301EF000DEE937F
:0301F0000DEF9F71
:0301F1000DF0AA64
:0301F2000DF1B557
:0301F3000DF2BF4B
:0301F4000DF3C840
:0301F5000DF4D333
:0301F6000DF5DB29
:0301F7000DF6E022
:0301F8000DF7EA16
:0301F9000DF8EE10
:0301FA000DF9F309
:0301FB000DFAF604
:0301FC000DFBFBFD
:0301FD000DFCFEF8
:0301FE000DFDFFF5
:0301FF000DFF00F1
:00000001ff
