:020000040000FA
:03000000000004F9
:03000100080402EE
:03000200000FF4F8
:030003000823CE01
:03000400003F8535
:0300050008630C81
:03000600008E5910
:0300070008C15FCE
:0300080000FC14E5
:03000900093E6B42
:03000A0001885A10
:03000B0009D9D63A
:03000C000232D3EA
:03000D000A93470C
:03000E0002FB26CC
:03000F000B6A6613
:0300100003E0FC0E
:030011000C5EDEA4
:0300120004E40003
:030013000D705914
:030014000603DD03
:030015000E9E84B8
:030016000740415F
:030017000FE90CE2
:030018000898DA6B
:03001900014FA1F3
:03001A000A0D5775
:03001B0002D1F21D
:03001C000B9D68D1
:03001D00046FB1BC
:03001E000D48C1C9
:03001F0006289020
:030020000F0F13AC
:0300210007FC4297
:0300220000F013D8
:0300230009EA7D6A
:0300240002EB7676
:030025000BF2F5E6
:030026000500F2E0
:030027000E156350
:0300280007303F5F
:0300290000517E05
:03002A000979163B
:03002B0002A6FE2C
:03002C000BDB2EBD
:03002D0005159E18
:03002E000E564427
:03002F00079D1911
:0300300000EA13D0
:030031000A3D2A5B
:03003200039656DC
:030033000CF58F3A
:03003400065ACC9D
:030035000FC605EE
:0300360009373255
:0300370002AE4BCB
:030038000C2B4846
:0300390005AE22EF
:03003A000F36CFAF
:03003B0008C549AC
:03003C00025987DF
:03003D000BF38240
:03003E00059331F6
:03003F000F388FE8
:0300400008E39240
:03004100029434F2
:030042000C4A6CF9
:0300430006063579
:030044000FC7855E
:03004500098E56CB
:03004600035AA1B9
:030047000D2C5E1F
:0300480007038625
:0300490000E012C2
:03004A000AC1FBED
:03004B0004A93ACB
:03004C000E95C945
:03004D0008879F82
:03004E00027EB778
:03004F000C7B091E
:03005000067C8E9D
:03005100008341E8
:030052000A8F1AF8
:0300530004A012F4
:030054000EB623C2
:0300550008D14689
:0300560002F1763E
:030057000D16ABD8
:030058000740DE80
:0300590001700B28
:03005A000BA429CB
:03005B0005DD348C
:03005C00001B2462
:03005D000A5DF445
:03005E0004A59D59
:03005F000EF21985
:03006000094362EF
:030061000399738D
:030062000DF44456
:030063000853D06F
:0300640002B811CE
:030065000D210268
:03006600078E9C66
:030067000200D9BB
:030068000C77B45E
:0300690006F32774
:03006A0001732DF2
:03006B000BF7BED2
:03006C000680D734
:03006D00010E720F
:03006E000BA0885C
:03006F000637143D
:0300700000D211AA
:030071000B717A96
:0300720006154828
:0300730000BD7756
:030074000B6A0113
:03007500061AE187
:0300760000D011A6
:030077000B898D65
:0300780006474FE9
:0300790001095129
:03007A000BCF9019
:03007B00069A05DD
:03007C000168AB6D
:03007D000C3B7FBA
:03007E00071279ED
:03007F0001ED96FA
:030080000CCCD1D4
:0300810007B024A1
:0300820002978B57
:030083000D8300EA
:030084000872807F
:030085000366050A
:030086000E5D8A82
:0300870009590B09
:0300880004588297
:030089000F5BEC1E
:03008A000A6344C2
:03008B00056E847B
:03008C00007DA94B
:03008D000B90AD28
:03008E0006A78D35
:03008F0001C24368
:030090000CE0CCB5
:030091000803223F
:03009200032941FE
:030093000E5326E3
:030094000980CB15
:0300950004B22B87
:030096000FE7442D
:030097000B20102B
:03009800065C8C77
:03009900019CB215
:03009A000CE07FF8
:03009B000827EE45
:03009C000372FCF0
:03009D000EC1A4ED
:03009E000A13E260
:03009F000569B23E
:0300A00000C3108A
:0300A1000C1FF839
:0300A2000780656F
:0300A30002E45420
:0300A4000E4BC13F
:0300A50009B6A8F1
:0300A60005250528
:0300A7000096D3ED
:0300A8000C0C102D
:0300A9000784B712
:0300AA000300C48C
:0300AB000E803490
:0300AC000A030242
:0300AD0005892C96
:0300AE000112AD8F
:0300AF000C9F8122
:0300B000082FA571
:0300B10003C31571
:0300B2000F59CD16
:0300B3000AF3CA83
:0300B400069108AA
:0300B50002318491
:0300B6000DD53A2B
:0300B700097C269B
:0300B800052645D5
:0300B90000D393DE
:0300BA000C840DA6
:0300BB000837AF54
:0300BC0003EE76DA
:0300BD000FA85F2A
:0300BE000B65656A
:0300BF000725868C
:0300C00002E8BE95
:0300C1000EAF0A75
:0300C2000A786752
:0300C3000644D020
:0300C400021444DF
:0300C5000DE6BE87
:0300C60009BC3B37
:0300C7000594B8E5
:0300C80001703292
:0300C9000D4EA633
:0300CA0009300FEB
:0300CB0005146DAC
:0300CC0000FBBA7C
:0300CD000CE5F44B
:0300CE0008D3173D
:0300CF0004C32245
:0300D00000B60F68
:0300D1000CABDE97
:0300D20008A489F6
:0300D30004A00F77
:0300D400009E6D1E
:0300D5000C9F9EDF
:0300D60008A3A1DB
:0300D70004AA7305
:0300D80000B40F62
:0300D9000CC074E4
:0300DA0008CF9FAD
:0300DB0004E18CB1
:0300DC0000F639F2
:0300DD000D0DA363
:0300DE000927C728
:0300DF000544A134
:0300E00001643187
:0300E1000D867118
:0300E20009AB6007
:0300E30005D2FB48
:0300E40001FD3FDC
:0300E5000E2A2AB6
:0300E6000A59B8FC
:0300E700068BE79E
:0300E80002C0B49F
:0300E9000EF81DF1
:0300EA000B321EB8
:0300EB00076EB6E7
:0300EC0003ADE081
:0300ED000FEF9C76
:0300EE000C33E6EA
:0300EF00087ABBD1
:0300F00004C41A2B
:0300F100010FFFFD
:0300F2000D5E6739
:0300F30009AF5101
:0300F4000602B948
:0300F50002589E10
:0300F6000EB0FD4C
:0300F7000B0BD21E
:0300F80007691C79
:0300F90003C8D960
:0300FA00002B05D3
:0300FB000C8F9EC9
:0300FC0008F6A261
:0300FD0005600F8C
:0300FE0001CBE152
:0300FF000E3A179F
:030100000AAAAF99
:03010100071DA532
:030102000392F76E
:03010300000AA44B
:030104000C84A8C0
:03010500090102EB
:03010600057FAFC3
:030107000200AD46
:030108000E83F96A
:030109000B09924D
:03010A00079175E5
:03010B00041B9F33
:03010C0000A80E3A
:03010D000D36C1EB
:03010E0009C7B569
:03010F00065AE8A5
:0301100002F058A2
:030111000F880153
:030112000C21E3DA
:0301130008BDFC28
:03011400055C483F
:0301150001FCC525
:030116000E9F73C6
:030117000B444E48
:0301180007EB549E
:03011900049484C7
:03011A00013FDBC7
:03011B000DED5790
:03011C000A9CF644
:03011D00074EB6D4
:03011E0004029543
:03011F0000B89194
:030120000D70A8B7
:030121000A2AD8CF
:0301220006E71ECF
:0301230003A57AB7
:030124000065E88B
:030125000D28673B
:0301260009ECF5EC
:0301270006B3918B
:03012800037C371E
:030129000046E6A7
:03012A000D139C16
:03012B0009E2588E
:03012C0006B31700
:03012D000385D770
:03012E00005A97DD
:03012F000D31553A
:030130000A0A0EAA
:0301310006E4C120
:0301320003C16D99
:0301330000A00E1B
:030134000D80A497
:030135000A632C2E
:030136000747A5D3
:03013700042E0D86
:030138000116624B
:030139000E00A312
:03013A000AECCDFF
:03013B0007DADF01
:03013C0004CAD61C
:03013D0001BCB250
:03013E000EB0718F
:03013F000BA610FC
:03014000089D8E89
:030141000596E937
:0301420002922006
:030143000F8F31EA
:030144000C8E1A04
:03014500098ED947
:0301460006916EB1
:030147000395D548
:03014800009C0E0A
:030149000DA416EC
:03014A000AADED0E
:03014B0007B99061
:03014C0004C6FEE8
:03014D0001D635A3
:03014E000EE73485
:03014F000BF9F9B0
:03015000090E8213
:030151000624CDB4
:03015200033CDA91
:030153000056A7AC
:030154000D7232F7
:030155000A8F7995
:0301560007AE7B76
:0301570004CF369C
:0301580001F1A909
:030159000F15D2AD
:03015A000C3BB0AB
:03015B00096342F3
:03015C00068C8589
:03015D0003B7786D
:03015E0000E419A1
:03015F000E126815
:030160000B4263EC
:0301610008740817
:0301620005A75599
:0301630002DC4A71
:030164000012E4A2
:030165000D4B231C
:030166000A850502
:0301670007C08846
:0301680004FDABE8
:03016900023C6CE9
:03016A000F7CCB3C
:03016B000CBEC601
:03016C000A025A2A
:03016D00074788B9
:03016E00048E4DAF
:03016F0001D6A90D
:030170000F2099C4
:030171000C6C1CF7
:0301720009B93296
:030173000707D8A3
:0301740004580D1F
:0301750001A9D10C
:030176000EFD205B
:030177000C51FB2D
:0301780009A86073
:0301790007004E2E
:03017A000459C263
:03017B0001B4BD0F
:03017C000F113C24
:03017D000C6F3FC5
:03017E0009CEC3E4
:03017F00072FC87F
:0301800004924D99
:0301810001F65034
:030182000F5BD040
:030183000CC2CBE0
:030184000A2B4003
:0301850007952FAC
:03018600050095DC
:03018700026D7294
:030188000FDBC5C5
:030189000D4B8B90
:03018A000ABCC4E8
:03018B00082F6FCB
:03018C0005A38A3E
:03018D000319153E
:03018E0000900DD1
:03018F000E0872E5
:030190000B82439C
:0301910008FD7EE8
:03019200067A22C8
:0301930003F82F3F
:030194000177A24E
:030195000EF87AE7
:030196000C7AB828
:0301970009FE5806
:0301980007835B7F
:030199000509BF96
:03019A000291824D
:03019B00001AA4A3
:03019C000DA5248A
:03019D000B310023
:03019E0008BE3860
:03019F00064CCA41
:0301A00003DCB5C8
:0301A100016DF7F6
:0301A2000F0091BA
:0301A3000C948039
:0301A4000A29C461
:0301A50007C05C34
:0301A600055846B3
:0301A70002F181E1
:0301A800008C0DBB
:0301A9000E27E836
:0301AA000BC51171
:0301AB000963875E
:0301AC00070349FD
:0301AD0004A45651
:0301AE000246AC5A
:0301AF000FEA4C08
:0301B0000D8F347C
:0301B1000B3562A9
:0301B20008DCD690
:0301B30006858F2F
:0301B400042F8B8A
:0301B50001DACAA2
:0301B6000F874B65
:0301B7000D350CF7
:0301B8000AE40D49
:0301B90008944C5B
:0301BA000645C92E
:0301BB0003F883C3
:0301BC0001AC781B
:0301BD000F61A728
:0301BE000D181108
:0301BF000ACFB3B1
:0301C00008888D1F
:0301C10006429D56
:0301C20003FDE357
:0301C30001BA5E20
:0301C4000F780CA5
:0301C5000D36EE06
:0301C6000AF70134
:0301C70008B8462F
:0301C800067ABAFA
:0301C900043E5D94
:0301CA0002032FFE
:0301CB000FC92D2C
:0301CC000D90583B
:0301CD000B58AE1E
:0301CE0009222FD4
:0301CF0006ECD962
:0301D00004B8ACC4
:0301D1000285A6FE
:0301D2000053C710
:0301D3000E230EEA
:0301D4000BF37AB0
:0301D50009C50A4F
:0301D6000797BDCB
:0301D700056B9223
:0301D80003408958
:0301D9000116A06C
:0301DA000EEDD750
:0301DB000CC62D22
:0301DC000A9FA0D7
:0301DD00087A316C
:0301DE000655DEE5
:0301DF000432A641
:0301E00002108882
:0301E1000FEF8499
:0301E2000DCF99A5
:0301E3000BB0C599
:0301E40009930973
:0301E50007766337
:0301E600055AD2E5
:0301E7000340567C
:0301E8000126ED00
:0301E9000F0E985E
:0301EA000CF754BB
:0301EB000AE12204
:0301EC0008CC003C
:0301ED0006B7EE64
:0301EE0004A4EA7C
:0301EF000292F485
:0301F00000820C7E
:0301F1000E72305B
:0301F2000C63603B
:0301F3000A559A10
:0301F4000848DFD9
:0301F500063D2C98
:0301F6000432824E
:0301F7000228E0FB
:0301F800002044A0
:0301F9000E18AF2E
:0301FA000C121FC5
:0301FB000A0C9457
:0301FC0008080CE4
:0301FD000604876E
:0301FE00040205F3
:0301FF0002008477
:00000001ff
